:020000040800F2
:10000000F8400120290300081D080008C707000860
:1000100019080008E3060008871000080000000027
:10002000000000000000000000000000690200085D
:10003000E706000800000000C5020008F10D0008F6
:100040004303000843030008430300084303000878
:100050004303000843030008430300084303000868
:100060004303000843030008430300084303000858
:100070004303000843030008430300084303000848
:100080004303000843030008430300084303000838
:100090004303000843030008430300084303000828
:1000A0004303000843030008430300084303000818
:1000B0004303000843030008430300084303000808
:1000C00043030008430300084303000843030008F8
:1000D00043030008690E00084303000843030008B7
:1000E00043030008430300084303000843030008D8
:1000F00043030008430300084303000843030008C8
:1001000043030008430300084303000843030008B7
:1001100043030008430300084303000843030008A7
:100120004303000843030008430300084303000897
:100130004303000843030008430300084303000887
:100140004303000843030008430300084303000877
:100150004303000843030008430300084303000867
:100160004303000843030008430300084303000857
:100170004303000843030008430300084303000847
:10018000430300084303000800F002F800F05CF8A5
:100190000AA090E8000C82448344AAF10107DA45E2
:1001A00001D100F051F8AFF2090EBAE80F0013F0D8
:1001B000010F18BFFB1A43F001031847A0420000CB
:1001C000C04200000A444FF0000C10F8013B13F04D
:1001D000070408BF10F8014B1D1108BF10F8015BA0
:1001E000641E05D010F8016B641E01F8016BF9D193
:1001F00013F0080F1EBF10F8014BAD1C0C1B09D1EA
:100200006D1E58BF01F801CBFAD505E014F8016B5B
:1002100001F8016B6D1EF9D59142D6D370470000ED
:100220000023002400250026103A28BF78C1FBD8FF
:10023000520728BF30C148BF0B6070471FB503F09D
:10024000F6FC1FBD10B510BD00F05BF91146FFF7BD
:10025000F5FF01F037FA00F079F903B4FFF7F2FF88
:1002600003BC00F012FF00002C4B19680868B0E8CE
:10027000F04F80F30988BFF36F8F4FF0000080F3D9
:10028000118870470000000008480068006880F38B
:1002900008884FF0000080F3148862B661B6BFF39F
:1002A0004F8FBFF36F8F00DF00BF00BF08ED00E08E
:1002B000DFF80C00016841F470010160704700BF75
:1002C00088ED00E0EFF30980BFF36F8F134B1A68DE
:1002D0001EF0100F08BF20ED108A20E9F04F1060CB
:1002E00009B44FF0500080F31188BFF34F8FBFF374
:1002F0006F8F02F099FC4FF0000080F3118809BC69
:1003000019680868B0E8F04F1EF0100F08BFB0EC95
:10031000108A80F30988BFF36F8F704700000020B8
:10032000EFF30580704700000948804709480047FF
:10033000FEE7FEE7FEE7FEE7FEE7FEE7FEE7FEE795
:10034000FEE7FEE704480549054A064B70470000F2
:10035000010E000889010008F83A0120F840012048
:10036000F83C0120F83C01207047032A40F230801D
:1003700010F0030C00F0158011F8013BBCF1020FE6
:10038000624498BF11F801CB00F8013B38BF11F867
:10039000013BA2F1040298BF00F801CB38BF00F87E
:1003A000013B11F0030300F05880083AC0F00880C8
:1003B00051F8043B083A51F804CBA0E80810F5E7DF
:1003C000121D5CBF51F8043B40F8043BAFF30080C2
:1003D000D20724BF11F8013B11F801CB48BF11F837
:1003E000012B24BF00F8013B00F801CB48BF00F807
:1003F000012B704702F0FF0343EA032242EA024264
:1004000000F05FB84FF0000200B5134694469646E0
:10041000203922BFA0E80C50A0E80C50B1F1200117
:10042000BFF4F7AF090728BFA0E80C5048BF0CC0C5
:100430005DF804EB890028BF40F8042B08BF704723
:1004400048BF20F8022B11F0804F18BF00F8012B95
:100450007047704770477047704710B5203AC0F03A
:100460000B80B1E81850203AA0E81850B1E81850B5
:10047000A0E81850BFF4F5AF5FEA027C24BFB1E8F2
:100480001850A0E8185044BF18C918C0BDE8104063
:100490005FEA827C24BF51F8043B40F8043B08BF6C
:1004A0007047D20728BF31F8023B48BF11F8012B33
:1004B00028BF20F8023B48BF00F8012B70474FF0DF
:1004C00000020429C0F0128010F0030C3FF49CAF2E
:1004D000CCF1040CBCF1020F18BF00F8012BA8BF2F
:1004E00020F8022BA1EB0C01FFF78EBF5FEAC17C65
:1004F00024BF00F8012B00F8012B48BF00F8012BA6
:100500007047754600F02CF8AE4605006946534624
:1005100020F00700854618B020B5FFF713FFBDE8AF
:1005200020404FF000064FF000074FF000084FF05A
:10053000000B21F00701AC46ACE8C009ACE8C009EB
:10054000ACE8C009ACE8C0098D46704710B5044658
:10055000AFF300802046BDE81040FFF77EBE0000EC
:1005600000487047983A012021B1826842F00102A8
:10057000826003E0826822F001028260704700001E
:100580000021084A1168084A1140D0E900231A43A3
:1005900083681A43C3681A431143044AC2F8041318
:1005A0007047000004230140E030FCFF00200140C0
:1005B0000146C86C80B270470246002013680B40A9
:1005C0000BB1012000E000207047000030B502466A
:1005D000002000235068104C20400D790C6844EA3C
:1005E00005242043506090680C4C2040D1E903540E
:1005F0002C438D682C434D7944EA45042043906098
:10060000D06A20F470000C7D641EE4B2234340EAFB
:100610000350D06230BD0000FFFEFFFCFDF7FFC0BD
:10062000F0B504460D4600200021092D11DDE068DB
:10063000A5F10A0606EB4607072606FA07F18843E6
:10064000A5F10A0606EB460603FA06F10843E06048
:100650000CE0206905EB4507072606FA07F18843F9
:1006600005EB450603FA06F108432061072A0FDA75
:10067000606B561E06EB86071F2606FA07F18843B5
:10068000561E06EB860605FA06F10843606322E073
:100690000D2A0FDA206BD61F06EB86071F2606FAF7
:1006A00007F18843D61F06EB860605FA06F10843D4
:1006B000206310E0E06AA2F10D0606EB86071F2614
:1006C00006FA07F18843A2F10D0606EB860605FA45
:1006D00006F10843E062F0BD816841F0804181602D
:1006E000704700BFFEE77047F0B50A4600210023BF
:1006F000002400BF3DE0012505FA01F3156805EA75
:1007000003049C4234D105684F000326BE40B54324
:10071000056015794E00B5400668354305601579CA
:10072000012D02D01579022D16D185684F000326C0
:10073000BE40B543856055794E00B5408668354367
:100740008560456801268E40B543456045689679C9
:100750008E40B6B235434560C5684F000326BE40A3
:10076000B543C560D5794E00B540C6683543C56010
:10077000491C1029BFD3F0BDF0B5002300244D075C
:10078000ED0E02FA05F3CE1000F1200555F82650C3
:100790004E07F70E0F26BE40B543CF1000F12006DE
:1007A00046F82750CE1000F1200555F8265045EAAE
:1007B0000304CE1000F1200545F82640F0BD41832A
:1007C00070470183704700BFFEE700001CB50121A0
:1007D000084600F08BF90121022000F087F904207F
:1007E000009001208DF8040000208DF80600032001
:1007F0008DF8050001208DF8070069460448FFF7D1
:1008000073FF0120009069460248FFF76DFF1CBD91
:10081000000002400004024000BFFEE770470000F5
:1008200070B5002100230F22C4781CB3174C246834
:1008300004F4E064C4F5E064C4F30721C1F10404E6
:10084000E3B20A4144789C40E1B2847814402143E9
:100850000C07210E0E4C05786155047804F01F0535
:100860000124AC4005786D11AD0005F1E025C5F817
:10087000004109E0047804F01F050124AC40054D57
:100880000678761145F8264070BD00000CED00E0BA
:1008900000E400E080E100E002490143024A116007
:1008A000704700000000FA050CED00E070B5002470
:1008B00019E004F1B001C8B2002100F0FFF80021F6
:1008C000084600F0FBF80021102000F0F7F80025A2
:1008D00005E00121002000F0F1F8681CC5B2802D70
:1008E000F7DB601CC4B2082CE3DB70BD2DE9F05FC0
:1008F00006460F4690461C46DDF828A04FF0000B38
:10090000E11704EB5171C910A4EBC10131B92046C4
:10091000E11704EB5171C1F3C70506E02046E1176A
:1009200004EB5171C910491CCDB23D4615E0294672
:10093000304600F016F8B1460BE059460BF1010BBA
:100940001AF80100012100F0B9F809F1010000F0E6
:10095000FF09C145F1DB681CC5B2A542E7DBBDE874
:10096000F09F70B504460D4605F1B001C8B20021F4
:1009700000F0A4F8102141EA1410002100F09EF8C4
:1009800004F00F0141F00100002100F097F870BD64
:100990002DE9F04107460E46904600250024A8F1B7
:1009A0002000C5B27F2F02DD0027B01CC6B2314641
:1009B0003846FFF7D6FF002408E004EB05110F4A84
:1009C000505C012100F07AF8601CC4B2082CF4DB02
:1009D000701CC1B23846FFF7C4FF002409E004EBE5
:1009E00005110831054A505C012100F067F8601CD0
:1009F000C4B2082CF3DBBDE8F08100006A3E0008B9
:100A00002DE9FF5F074691461D460E9E4FF0000AF6
:100A1000002433E0281B401EC1B20A2000F0ECFF86
:100A2000B9FBF0F00A21B0FBF1F201FB1208BAF1B8
:100A3000000F13D1681EA04210DDB8F1000F0BD1DA
:100A4000B34606EBDB71491001FB0471C8B22022EA
:100A50000199FFF79DFF0FE04FF0010AB34606EB47
:100A6000DB71491001FB0471C8B208F13001CAB250
:100A70000199FFF78DFF00BF601CC4B2AC42C9DB17
:100A8000BDE8FF9F2DE9F04104460F4615460026BC
:100A90000EE0AA5D39462046FFF77AFF04F1080010
:100AA000C4B2782C02DD0024B81CC7B2701CC6B2D8
:100AB000A85D0028EDD1BDE8F081000070B50546C5
:100AC0000C4624B110210848FFF77BFE03E01021FB
:100AD0000548FFF774FE284600F0ACF810210248E4
:100AE000FFF76FFE70BD00000000024029B1064A0A
:100AF00012680243044B1A6004E0034A12688243FE
:100B0000014B1A60704700003038024029B1064A94
:100B100012680243044B1A6004E0034A12688243DD
:100B2000014B1A60704700004438024029B1064A60
:100B300012680243044B1A6004E0034A12688243BD
:100B4000014B1A607047000024380240F0B50021C4
:100B500000220024022500260223324F3F6807F0BE
:100B60000C0121B1042905D0082937D105E02E4F09
:100B7000076036E02D4F076033E02A4F3F1F3F6884
:100B8000C7F38056274F3F1F3F6807F03F036EB102
:100B9000264FB7FBF3F7DFF88CC0ACF1040CDCF8A0
:100BA00000C0CCF3881C07FB0CF40CE01E4FB7FB15
:100BB000F3F7DFF870C0ACF1040CDCF800C0CCF344
:100BC000881C07FB0CF4174F3F1F3F68C7F3014712
:100BD0007F1C7D00B4FBF5F7076002E0124F076051
:100BE00000BF00BF0F4F3F6807F0F0010909104F29
:100BF0007A5C0768D74047600A4F3F6807F4E051C6
:100C0000890A0B4F7A5C4768D7408760054F3F6879
:100C100007F46041490B064F7A5C4768D740C760CC
:100C2000F0BD0000083802400024F40000127A00F1
:100C30007400002010B5044600BF02210A4800F0ED
:100C400021F80028F9D02146074800F027F800BF16
:100C50000121054800F016F80028F9D0024800F0FC
:100C60001AF8C0B210BD00000030014021B1028866
:100C700042F04002028004E002884FF6BF731A403F
:100C8000028070470246002013890B400BB10120FF
:100C900000E00020704701468889704781817047D5
:100CA00010B50022028802F441520B884C8823437D
:100CB0008C882343CC8823430C8923434C892343CA
:100CC0008C892343CC8923431A430280838B4FF2C0
:100CD000FF74234083830B8A038210BD0CB5002070
:100CE000019000903448006840F480303249086038
:100CF00000BF3148006800F4003000900198401CAB
:100D00000190009818B90198B0F5A04FF1D12A4888
:100D1000006800F4003010B10120009001E00020D4
:100D200000900098012846D123484030006840F0E8
:100D300080502149403108602048006840F440401C
:100D40001E4908601C48083000681B4908310860CB
:100D50000846006840F4004008600846006840F417
:100D6000A05008601648091F0860081F006840F07E
:100D70008070091F086000BF0F48006800F0007015
:100D80000028F9D040F205700E4908600A48083082
:100D9000006820F003000849083108600846006830
:100DA00040F00200086000BF03480830006800F00F
:100DB0000C000828F8D10CBD00380240007000403B
:100DC00008544007003C0240042808D14FF0E021BD
:100DD000096941F004014FF0E022116107E04FF092
:100DE000E021096921F004014FF0E0221161704710
:100DF00010B502F021FB012801D002F00FF810BD60
:100E000010B51548006840F4700013490860134895
:100E1000006840F001001149086000200F490831C6
:100E200008600E4800680E4908400C4908600D48EB
:100E3000091D0860081F006820F48020091F086051
:100E4000002006490C310860FFF748FF4FF00060B2
:100E500001498039086010BD88ED00E0003802408B
:100E6000FFFFF6FE1030002410B540F225511D485A
:100E700000F04AF810B31B4800F000F9C4B21A4859
:100E8000008800F40040C8B91748008800F480408A
:100E900060B10A2C03D000201349088020E01248DA
:100EA000008840F400401049088019E00D2C06D15C
:100EB0000D48008840F480400B49088010E00A4843
:100EC0000088C0F30D0009490C5407480088401CF5
:100ED0000549088008460088C72801DD00200880F1
:100EE00010BD00000010014088000020C039012022
:100EF00021B1828942F40052828104E082894DF658
:100F0000FF731A408281704770B5024600240023A7
:100F10000025002040F66A16B14200D100BFC1F39F
:100F2000421501F01F03012606FA03F3012D02D139
:100F30009689334006E0022D02D1168A334001E043
:100F4000968A33400C12012606FA04F416883440BF
:100F500013B10CB1012000E0002070BDF0B50346D4
:100F6000002400260025002040F66A17B94200D16F
:100F700000BF1846C1F3421401F01F06012707FA0B
:100F800006F5012C01D10C3004E0022C01D1103007
:100F900000E014301AB107682F43076002E00768C9
:100FA000AF430760F0BD00002DE9FF4705460E4640
:100FB0000024A14600BFA046B08900B100BF2C8A22
:100FC00024F44054F08804432C82AC8941F20C6034
:100FD0008443B08831890843718908430443AC8154
:100FE000AC8A24F44074B0890443AC826846FFF7AD
:100FF000ADFD2048854202D01F48854202D1DDF870
:101000000C9001E0DDF80890A88900F4004040B1A0
:1010100009EBC90000EB091031684900B0FBF1F79A
:1010200007E009EBC90000EB091031688900B0FB4B
:10103000F1F76420B7FBF0F004012009642101FB03
:101040001078A88900F4004040B1322000EBC800BD
:10105000B0FBF1F000F00700044308E0322000EBA1
:1010600008106421B0FBF1F000F00F0004432C8164
:10107000BDE8FF8700100140001401400146888848
:10108000C0F30800704700BFFEE700BF70470000D4
:101090001CB50548012100238022CDE9001003A1E1
:1010A000054802F099F91CBDA40000207374617218
:1010B000745F7461736B000069250008704700005D
:1010C00070B504460420FFF77FFE0C4804702546E7
:1010D0004FF47A7045430120094908804FF0E02021
:1010E000006940F002004FF0E021086108464561C8
:1010F000006940F00100086170BD00008A00002016
:101100008C00002070B5044602F096F9012810D03A
:101110000B480088844206D309480088B4FBF0F5E8
:10112000284601F039FC06480088B4FBF0F100FBCA
:1011300011444FF47A7104FB01F000F003F870BD24
:101140008C00002070B5034600224FF0E026756940
:101150000D4E367803FB06F44FF0E026B16910E03F
:101160004FF0E026B06988420BD0884202D20E1AB6
:10117000324402E02E1A0E4432440146A24200D309
:1011800000E0EDE700BF70BD8A0000202DE9F041CE
:1011900007460C460025002608E0384600F0F6FA1F
:1011A00005440520FFF7AEFF701CC6B2A642F4DB73
:1011B000B5FBF4F080B2BDE8F081000010B50A2163
:1011C000032000F069F8BCEEC00A10EE100A3049A6
:1011D000C880C888002101F0B3F9012804D12C4946
:1011E000487200202B4908702949C88840F27D21A7
:1011F00001F0A6F9012805D10220254948720020F6
:10120000244908702249C88840F22D5101F098F90C
:10121000012805D103201E49487200201D4908708D
:101220001B49C88840F2AD7101F08AF9012805D147
:101230000420174948720020164908701449C888CC
:1012400040F6272101F07CF9012805D1052010493D
:10125000487200200F4908700D49C88840F6A8411F
:1012600001F06EF9012805D10020094948720949A9
:10127000087004E007480078401C064908700548DB
:101280000078142802DB00200149487210BD0000DC
:10129000883A0120700A002070B52DED068B0446B7
:1012A0000D4629462046FFF771FF08EE900AB8EE7A
:1012B000680A10EE100A02F049FC41EC1A0B9FED8F
:1012C0000F0B53EC102B02F043FB41EC190B02F017
:1012D0000DFB08EE100ABCEEC80A10EE100A80B230
:1012E00008EE900A9FED070A28EE000AB0EE408A49
:1012F000B0EE480ABDEC068B70BD000066666666FF
:1013000066664A3F00007A44012001490870704730
:10131000883A012070477047F8B505460E461F48C9
:101320000078854204DDE81E1D4908701B480570E1
:101330001B480078854204DA19480570E81C1749F3
:101340000870002427E0164800782044A84205D100
:1013500061002D220020FFF71BFB04E0610020222A
:101360000020FFF715FB102000900D4800780219AF
:10137000610001230A20FFF743FB0948007820445D
:10138000401E00EB400006EB800261001420FFF7D6
:1013900079FB601CC4B2042CD5DBF8BD720A0020B6
:1013A000710A002008B5FFF709FF4848407A06286F
:1013B00064D2DFE800F00304051627435EE05DE039
:1013C0004248007800F0030050B94048C078002837
:1013D00006DD3E48C078401E3C49C870FFF766FAFB
:1013E0004CE03A48007800F0030050B93748C07824
:1013F000032806DA3548C078401C3449C870FFF726
:1014000055FA3BE03148C07800B937E02F48C07842
:10141000032800D132E02D48C078401E2B49491CDA
:10142000085C012809DD481EC078401E085C401E8B
:10143000C2B2481EC078401E0A541FE02348C0783C
:1014400000B91BE02148C078032800D116E01F48EE
:10145000C078401E1D49491C085C491E0979884214
:101460000BDA1A48C078401E1849491C085C401C19
:10147000C2B2481EC078401E0A5400BF00BF1348C5
:10148000C07830B1012810D0022817D003281BD112
:1014900017E00F4806238022002100900846FFF73E
:1014A00025FA0120094948700EE0084948780949A1
:1014B000FFF732FF01210548817005E000F00CF8CC
:1014C00002E000F009F800BF00BF08BD883A012023
:1014D000B0040020D007002010B51048407808283C
:1014E0001AD2DFE800F01904070A0D10131600F0F5
:1014F00017F811E000F03EF80EE000F065F80BE0A0
:1015000000F08CF808E000F095F805E000F09EF897
:1015100002E000F0A7F800BF00BF10BD883A01202C
:1015200010B51248C078022804D1104988781049B3
:10153000FFF7F2FE0D48C078032815D10B488078DC
:10154000082810D2DFE800F00F04070A0B0C0D0E7C
:1015500001F03CF807E0FFF7B1FD04E003E002E032
:1015600001E000E000BF00BF10BD0000883A01208C
:101570002408002010B51248C078022804D1104970
:1015800088781049FFF7C8FE0D48C078032815D1A8
:101590000B488078082810D2DFE800F00F04070A13
:1015A0000B0C0D0E01F038F807E001F036F804E0FE
:1015B00003E002E001E000E000BF00BF10BD00005A
:1015C000883A01207808002010B51248C078022817
:1015D00004D1104988781049FFF79EFE0D48C07865
:1015E000032815D10B488078082810D2DFE800F0D6
:1015F0000F04070A0B0C0D0EFFF78DFE07E001F03C
:101600000CF804E003E002E001E000E000BF00BFEE
:1016100010BD0000883A0120CC08002010B5034915
:1016200088780349FFF778FE10BD0000883A012052
:101630002009002010B5034988780349FFF76CFEA4
:1016400010BD0000883A01207409002010B503493C
:1016500088780349FFF760FE10BD0000883A01203A
:10166000C809002010B5034988780349FFF754FEE4
:1016700010BD0000883A01201C0A0020FFF716F96F
:1016800004E0FFF78FFE642001F086F9F9E700001F
:1016900010E009480068C0430849C1F888020848BA
:1016A000D0F88002C0430649C1F880024FF4FA70B6
:1016B00001F072F9EDE7000088024042000040426C
:1016C000008040424FF44070FFF7E6F8A820FFF793
:1016D000F7FC4FF4E13000F0A1FFFFF777F800F0DE
:1016E0000DF800F01BF900F069F800F071F9FFF750
:1016F000CFFC01F047FA00BFFEE7000000B58DB057
:1017000001210846FFF7F2F901210802FFF7FEF96F
:1017100003208DF8300000208DF8320008200B9057
:1017200000208DF8330003208DF831000BA91548F7
:10173000FEF7DAFF01210802FFF7F8F900214FF464
:101740008070FFF7F3F9002007900A9009904FF49A
:101750008030089007A8FEF713FF002001908DF855
:1017600008008DF809000390059001208DF81800FD
:1017700001A90548FEF72AFF01210348FEF7F4FE00
:101780000DB000BD000002400020014010B504462D
:101790000723012221460848FEF742FF0648FEF7CC
:1017A0009BFF00BF02210448FEF706FF0028F9D086
:1017B0000148FEF7FDFE10BD0020014010B500F00D
:1017C0008FF840214548FEF7FCFF6420FFF79AFCA4
:1017D00040214248FEF7F3FF6420FFF793FC4021CD
:1017E0003E48FEF7EEFF0021AE20FFF767F900212B
:1017F0000846FFF763F900211020FFF75FF9002189
:101800004020FFF75BF900218120FFF757F9002105
:10181000CF20FFF753F90021A120FFF74FF9002156
:10182000C820FFF74BF90021A620FFF747F9002158
:10183000A820FFF743F900213F20FFF73FF90021DF
:10184000D320FFF73BF900210846FFF737F90021C5
:10185000D520FFF733F900218020FFF72FF9002171
:10186000D920FFF72BF90021F120FFF727F90021FC
:10187000DA20FFF723F900211220FFF71FF90021DA
:10188000DB20FFF71BF900214020FFF717F90021AB
:101890002020FFF713F900210220FFF70FF90021A4
:1018A0008D20FFF70BF900211420FFF707F9002125
:1018B000A420FFF703F90021A620FFF7FFF800217D
:1018C000AF20FFF7FBF80021AF20FFF7F7F8FEF796
:1018D000EDFF00210846FFF744F810BD000002406C
:1018E0001CB501210220FFF701F9502000900120D2
:1018F0008DF8040000208DF8060002208DF8070006
:101900008DF8050069460448FEF7EEFE50210248B6
:10191000FEF757FF1CBD00000000024000B587B075
:1019200001210846FFF7E2F801210803FFF7EEF86E
:10193000A020059002208DF8180001208DF81B00D2
:1019400000208DF81A0003208DF8190005A91E4803
:10195000FEF7CAFE052211461B48FEF70DFF0522C1
:1019600007211948FEF708FF01210803FFF7DEF8F9
:1019700000214FF48050FFF7D9F80020ADF80000A7
:101980004FF48270ADF802000020ADF80400022090
:10199000ADF806000120ADF808004002ADF80A00DD
:1019A0000820ADF80C000020ADF80E000720ADF8BF
:1019B000100069460548FFF773F901210348FFF756
:1019C00055F907B000BD00000000024000300140A2
:1019D0000120074948700121054881700020044911
:1019E000C8700870072008710248C860704700007E
:1019F000883A0120A513000810B50246012000E036
:101A000050430B1EA1F10104E1B2F9D110BD000059
:101A10002DE9F04105460E461C4807681C48006841
:101A2000001D00F051FE50B91948006890F82C10C4
:101A30000120884017490968814316480160681CE5
:101A400038B936B112480168091D134800F07AFE12
:101A50001AE07C190E4800684460BC4207D20C486A
:101A60000168091D0D48006800F052FE0CE00848AE
:101A70000168091D0A48006800F04AFE094800682C
:101A8000844201D207480460BDE8F08114000020C0
:101A90000000002018000020840D00200800002015
:101AA000040000203000002010B5044600F056FE6F
:101AB00024480068401C234908602348006840B956
:101AC000214804600846006801280DD100F0D6F9CD
:101AD0000AE01E48006838B91B480068C06AE16A1D
:101AE000884201D81848046019480068401C184909
:101AF000086008460068606494F82C100120884053
:101B000014490968084313490860E16A01EB81013F
:101B1000114A02EB8100211D00F014FE00F048FE86
:101B20000A48006868B108480068C06AE16A8842EB
:101B300007D24FF0805009490860BFF34F8FBFF3C1
:101B40006F8F10BD10000020000000201C0000203E
:101B50002C00002018000020B40A002004ED00E052
:101B600010B500F0FBFD10480068D0B90F4800F038
:101B7000BFFD0F4800F0BCFD0C480E4908600C4842
:101B80000D49086000220C210A2001F061F9064984
:101B900008600846006820B108A10348006800F00A
:101BA000BFFE00F005FE10BD44000020980D00208F
:101BB000AC0D00203C00002040000020546D72510C
:101BC0000000000010B516E000F0C8FD0C48C06829
:101BD000C468201D00F078FD0A480068401E0949CD
:101BE000086009480068401E0749086000F0E0FDF1
:101BF000204600F05FF8044800680028E4D110BDDA
:101C0000700D0020100000200C00002070B504466C
:101C10000D46206C70B1216CE0680144E160D4E9AC
:101C20000210884201D32168E1602846226CE168F5
:101C3000FEF79BFB70BD2DE9F04104460F461546AB
:101C40004FF00008A66B206C48B9206800282CD102
:101C5000A06801F0ABFC80460020A06025E07DB9C3
:101C60003946226C6068FEF780FB216C606808448E
:101C70006060D4E90101884217D32068606014E0F5
:101C80003946226CE068FEF770FB216CE068411A6F
:101C9000E1602168E068884203D2216CA068411AA3
:101CA000E160022D01D106B1761E701CA063404692
:101CB000BDE8F08110B50446206B00F097FD20468A
:101CC00000F094FD10BD00000146084A1268126839
:101CD0000AB9012200E000220A600A6822B9034A18
:101CE0001268D268106800E0002070473C000020B5
:101CF00030B54FF49633174800F007042CB1C01DDF
:101D000020F00700134C041B1B1B0246124C2260E0
:101D10000024114D6C60D018083820F007000F4CDB
:101D2000206000240D4D2D686C600C4D2D682C60DA
:101D30001146441A4C60094C24680C60084D4C68EC
:101D40002C60084D4C682C604FF00044064D2C6010
:101D500030BD0000C00D00205000002058000020C1
:101D6000600000205C0000206400002000BFFFF73E
:101D700029FF064800680128F9D94FF0805004492E
:101D80000860BFF34F8FBFF36F8FF0E7B40A0020F6
:101D900004ED00E02DE9F04106460D461746984651
:101DA000069C0DB9246000E02760E66325640121EC
:101DB000204601F07BF884F84C80BDE8F0812DE9E5
:101DC000F05F82460E4690469B460A9F0C9C4FEA67
:101DD0008801A522206BFEF70DFBA8F10100216B05
:101DE00001EB800929F0070909F0070008B9012073
:101DF00000E0002050B900BF502080F31188BFF3ED
:101E00004F8FBFF36F8F00BF00BFFEE786B1002585
:101E100007E0715D04F134004155705D00B902E0E6
:101E20006D1C102DF5D300BF00214320015502E0A9
:101E3000002084F83400202F00D31F27E762E764D6
:101E400000202065201D00F060FC04F1180000F067
:101E50005CFC2461C7F12000A06164620020606521
:101E600084F858005A465146484600F053FB20601B
:101E70000B9808B10B980460BDE8F09F10B50024E2
:101E800007E004EB84010F4A02EB810000F030FC14
:101E9000641C202CF5D30C4800F02AFC0B4800F001
:101EA00027FC0B4800F024FC0A4800F021FC0A48FB
:101EB00000F01EFC0448094908600448084908600D
:101EC00010BD0000B40A0020340D0020480D002091
:101ED0005C0D0020700D0020840D00200400002007
:101EE0000800002010B50146164800E000680368AD
:101EF0008B42FBD30246436813448B4204D14368B0
:101F00004C682344436001460A464B681344046806
:101F1000A34211D10C4C03682468A34208D04B683B
:101F20000468646823444B6003681B680B6005E029
:101F3000054B1B680B6001E003680B60884200D012
:101F4000016010BD50000020580000202DE9F04134
:101F500004460D4616461F464FF000086560246192
:101F6000B5420CD8F01BA169884202D34FF001089A
:101F700011E0211D0948006800F0CAFB0BE0BE42D9
:101F800004D2BD4202D34FF0010804E0211D0448F1
:101F9000006800F0BDFB4046BDE8F0814000002035
:101FA0003C00002070B5054600F0D8FBA86B08B9CE
:101FB000012400E0002400F0FBFB204670BD70B55A
:101FC000054600F0CBFBA86BE96B884201D10124E8
:101FD00000E0002400F0ECFB204670BDF8B505469B
:101FE0000F461A480068C068C468201D00F06CFBEA
:101FF00094F8280000F00400E8B1A06941192B46CC
:102000003A462046FFF7A2FFD8B1002003462A46F1
:1020100001460090204601F027FC064656B900BF55
:10202000502080F31188BFF34F8FBFF36F8F00BF35
:1020300000BFFEE705E094F8280020F0010084F8D6
:1020400028002046216A8847F8BD00003C00002097
:1020500070B586B08BE003980028FBDB059C6069B7
:1020600008B9012000E0002010B9201D00F02CFB71
:1020700002A800F0DDF8054603980A2875D2DFE8CB
:1020800000F009050739416306083A4200BF00BF66
:1020900000BF00BF94F8280040F0010084F8280039
:1020A0000498A269811803462A462046FFF74EFF8E
:1020B000F8B12046216A884794F8280000F004000F
:1020C000B8B1002000900498A16942180023194675
:1020D000204601F0C9FB064656B900BF502080F3E8
:1020E0001188BFF34F8FBFF36F8F00BF00BFFEE7B4
:1020F00000BF3BE000BF94F8280020F0010084F806
:10210000280033E000BF94F8280040F0010084F874
:1021100028000498A061A06908B1012000E0002017
:1021200050B900BF502080F31188BFF34F8FBFF329
:102130006F8F00BF00BFFEE7A06941192B462A46FA
:102140002046FFF703FF11E094F8280000F002009A
:1021500018B9204600F04AFB05E094F8280020F06A
:10216000010084F8280001E0FFE700BF00BF002263
:1021700003A90448006801F035F800287FF46BAF2C
:1021800006B070BD44000020F8B505460C4600F0CE
:1021900043FD684600F04CF80646009820BB44B961
:1021A000B54206D801F0B2FA31462846FFF716FFCD
:1021B0001CE03CB10E480068006808B9012000E04E
:1021C00000200446A91B22460A48006800F0BEFB16
:1021D00001F09CFA50B94FF0805007490860BFF3F6
:1021E0004F8FBFF36F8F01E001F090FAF8BD000050
:1021F000400000204400002004ED00E00A49096886
:10220000096809B9012100E0002121B14FF0FF3137
:10221000064A116006E004490968C968C868034AAB
:102220004168116070470000040000203000002069
:1022300070B5044601F010F905460748006885426C
:1022400004D200F00BF80120206001E000202060A3
:1022500001480560284670BD4C0000202DE9F84378
:1022600034E025480068C068056823480068C068F5
:10227000C468201D00F028FA2046216A884794F897
:10228000280000F0040008B3A0694619AE4207D93F
:1022900066602461211D1848006800F039FA15E0D5
:1022A000002003462A4601460090204601F0DCFA51
:1022B000074657B900BF502080F31188BFF34F8FF6
:1022C000BFF36F8F00BF00BFFEE700BF0A48006882
:1022D000006808B9012000E000200028C1D00648AD
:1022E000D0F8008005480068034908600348C0F83A
:1022F0000080BDE8F88300003C0000204000002082
:102300000E480068401C08B9012000E0002050B9C8
:1023100000BF502080F31188BFF34F8FBFF36F8F42
:1023200000BF00BFFEE700BF502080F31188BFF35D
:102330004F8FBFF36F8F00BF00BFFEE76800002024
:1023400008B500BF6846FFF7BFFC04462046009969
:10235000FFF71AFFFFF77CFEF4E770B5044600F0C4
:10236000FDF994F9455010E0606A08B9012000E0D9
:10237000002038B904F1240001F07CF918B100F014
:10238000BFFB00E003E0681E45B2002DECDC00BF9F
:10239000FF2084F8450000F00BFA00F0DFF994F913
:1023A000445010E0206908B9012000E0002048B93D
:1023B00004F1100001F05EF908B100F0A1FB681E05
:1023C00045B200E001E0002DECDC00BFFF2084F806
:1023D000440000F0EDF970BD2DE9F04104464FF0E6
:1023E000000800F019FC4648006808B9FFF780FCB7
:1023F00044480068204000286BD1D4B1083404F070
:102400000700B0B104F00700C0F10800044404F074
:10241000070008B9012000E0002050B900BF50209B
:1024200080F31188BFF34F8FBFF36F8F00BF00BFE2
:10243000FEE7002C4DD034480068844249D8334E22
:102440003046056801E02E462D686868A04202D239
:1024500028680028F7D12A480068854239D03068BA
:1024600000F10808286830606868001B102819D936
:102470002F1907F0070008B9012000E0002050B92B
:1024800000BF502080F31188BFF34F8FBFF36F8FD1
:1024900000BF00BFFEE76868001B78606C603846CC
:1024A000FFF720FD184968680968081A164908608E
:1024B0000846006816490968884203D21248006835
:1024C000134908600F49686809680843686000207C
:1024D000286001F01BF908F0070008B9012000E0AE
:1024E000002050B900BF502080F31188BFF34F8FF8
:1024F000BFF36F8F00BF00BFFEE74046BDE8F0812D
:1025000058000020640000205C00002050000020E3
:1025100060000020001F4FF080730360001F21F057
:1025200001030360001F054B036014380260001FA5
:102530006FF0020303602038704700000123000899
:102540000246462903DDA1F1460083B202E0462996
:1025500000DA00239A4205DB01F14600824201DCE9
:10256000012070470020FCE71CB504460C480221FE
:1025700000238022CDE900100AA10D4800F02CFFB5
:102580000C48032100238022CDE900100AA10D4848
:1025900000F022FF0C48006800F02CFA1CBD00007F
:1025A000A80000206C6564305F7461736B000000EC
:1025B0007D160008AC0000206C6564315F746173A7
:1025C0006B00000091160008A400002008B5FEF77B
:1025D0009BFE0BA200210220FEF754FA102000906F
:1025E0000B48C288072304210A20FEF709FA09A232
:1025F00004215020FEF746FAFEF78CFE08BD0000CD
:10260000627574746F6E5F61645F746578740000E6
:10261000883A01206D5600007047704710B588B0A9
:10262000044601210846FEF761FA01211020FEF759
:102630006DFA072209212248FEF79EF807220A2197
:102640001F48FEF799F84FF4C060069002208DF8FD
:102650001C008DF81D0000208DF81E0001208DF853
:102660001F0006A91648FEF73FF802940020ADF8B7
:102670000C00ADF80E00ADF81000ADF814000C2001
:10268000ADF8120002A90F48FEF78EFC01210D489B
:10269000FEF72EFC012240F225510A48FEF75EFCAF
:1026A00025208DF8040003208DF805008DF8060024
:1026B00001208DF8070001A8FEF7B2F808B010BDA0
:1026C000000002400010014001460A69D1E90130D2
:1026D0009860D1E9010358605068884201D1886848
:1026E0005060002008611068401E1060106870473C
:1026F00000F1080141604FF0FF31816000F10801F5
:10270000C1600161002101607047002101617047D3
:1027100010B502460B685C1C0CB9106907E002F1A9
:10272000080000E04068446824689C42FAD9446884
:102730004C604C68A160886041600A611468641C48
:10274000146010BD42684A6093688B60936859605A
:102750009160086103685B1C0360704700BF5020F4
:1027600080F31188BFF34F8FBFF36F8F00BF0E4808
:102770000068401C0C49086008460068012812D116
:102780000A480068C0B208B9012000E0002050B932
:1027900000BF502080F31188BFF34F8FBFF36F8FBE
:1027A00000BF00BFFEE770476800002004ED00E0B6
:1027B0000D48006850B900BF502080F31188BFF366
:1027C0004F8FBFF36F8F00BF00BFFEE70648006862
:1027D000401E054908600846006820B9002080F3C3
:1027E000118800BF00BF70476800002070B5064622
:1027F0003546002E3FD0083D2C461F4960680968C9
:10280000084008B1012000E0002050B900BF50206E
:1028100080F31188BFF34F8FBFF36F8F00BF00BFEE
:10282000FEE7206808B9012000E0002050B900BF91
:10283000502080F31188BFF34F8FBFF36F8F00BF1D
:1028400000BFFEE70C4960680968084098B120683D
:1028500088B90949606809688843606000F0DCF95C
:102860000649606809680844044908602046FFF783
:1028700039FB00F04BFF70BD640000205C000020BD
:1028800000204FF0E02108618861064800684FF49D
:102890007A71B0FBF1F0401E4FF0E0214861072053
:1028A000086170479000002070B5FDF739FD0446BF
:1028B000102C16D304F1E02090F8F053154800785E
:1028C000854201DB012000E0002050B900BF50200C
:1028D00080F31188BFF34F8FBFF36F8F00BF00BF2E
:1028E000FEE70D48006800F4E0600C490968884282
:1028F00001D8012000E0002050B900BF502080F333
:102900001188BFF34F8FBFF36F8F00BF00BFFEE78B
:1029100070BD00006C0000200CED00E07000002095
:10292000024600200BE0084B53F8303033B9064B19
:1029300043F8301003EBC0035A6002E0401C082843
:10294000F1D300BF70470000740A00202DE9F04168
:1029500005460E4617462C46FFF700FF94F9440043
:10296000401C10B9002084F8440094F94500401C34
:1029700010B9002084F84500FFF71AFFA06B28B9B2
:102980003A46314604F1240000F0DCF82046FFF717
:10299000E4FCBDE8F081000070B504460025D4B128
:1029A0001248006808B9012000E0002050B900BFBB
:1029B000502080F31188BFF34F8FBFF36F8F00BF9C
:1029C00000BFFEE700F028F900212046FFF720F8BD
:1029D00000F09CFE05463DB94FF080500449086068
:1029E000BFF34F8FBFF36F8F70BD00003800002022
:1029F00004ED00E070B50546FFF7B0FE15B93048AC
:102A0000006800E028460446201DFFF75DFE78B907
:102A1000E06A00EB80002B4951F8200040B994F89F
:102A20002C1001208840284909688143264801600C
:102A3000A06A18B104F11800FFF746FE23480068A9
:102A4000401C224908601E480068844209D1211DAB
:102A50001F48FFF777FE1F480068401C1D490860AB
:102A600009E01D480068401E1B4908602046FFF72A
:102A700021F9FFF7C3FBFFF79BFE18480068E8B198
:102A80000F480068844219D11548006808B9012030
:102A900000E0002050B900BF502080F31188BFF340
:102AA0004F8FBFF36F8F00BF00BFFEE74FF0805026
:102AB0000C490860BFF34F8FBFF36F8F70BD0000EC
:102AC00000000020B40A0020180000202C00002084
:102AD000700D00200C000020100000201C000020C1
:102AE0003800002004ED00E0034909680160034953
:102AF0000968416070470000280000201400002091
:102B000001200149086070472400002070B5044688
:102B10000D4654B900BF502080F31188BFF34F8F8A
:102B2000BFF36F8F00BF00BFFEE705480168183193
:102B30002046FFF7EDFD01212846FEF769FF70BD35
:102B40000000002070B505460E46144655B900BF7A
:102B5000502080F31188BFF34F8FBFF36F8F00BFFA
:102B600000BFFEE70648016818312846FFF7EAFD76
:102B70000CB14FF0FF3621463046FEF749FF70BDDD
:102B8000000000201CB51D4800210B468222CDE923
:102B900000101BA11C4800F01FFC0446012C02D1B0
:102BA00000F036FE0446012C15D100BF502080F302
:102BB0001188BFF34F8FBFF36F8F00BF4FF0FF300F
:102BC000124908600120124908600020114908607C
:102BD00000F070F810E0601C08B1012000E0002057
:102BE00050B900BF502080F31188BFF34F8FBFF35F
:102BF0006F8F00BF00BFFEE71CBD00003400002047
:102C000049444C45000000006D1D000830000020C4
:102C10001C0000201400002002480068401C0149EC
:102C200008607047380000201D48006818B1012076
:102C30001C49086032E000201A4908601A48006800
:102C4000B0FA80F0C0F11F0101EB8100174A52F881
:102C5000200008B1012000E0002050B900BF502042
:102C600080F31188BFF34F8FBFF36F8F00BF00BF9A
:102C7000FEE701EB81020D4B03EB820042685268D4
:102C8000426000F108024368934202D142685268F0
:102C900042604268D268064B1A6000BF704700006D
:102CA000380000202400002018000020B40A002072
:102CB000000000201CB5524800685249884201D0EB
:102CC000012000E0002050B900BF502080F311889F
:102CD000BFF34F8FBFF36F8F00BF00BFFEE74848C1
:102CE00000684849491E884201D0012000E00020C8
:102CF00050B900BF502080F31188BFF34F8FBFF34E
:102D00006F8F00BF00BFFEE73F4908460078019083
:102D1000FF200A4610700846007800909DF80000D9
:102D200000F0F0009DF80020904201D1012000E069
:102D3000002050B900BF502080F31188BFF34F8F9F
:102D4000BFF36F8F00BF00BFFEE79DF8000000F0EB
:102D500050002E4A107007202D4A106009E02C48C0
:102D60000068401E2A4A10609DF800004006000ED0
:102D700000909DF8000000F080008028EFD02448EB
:102D80000068C0F10700042801D1012000E0002004
:102D900050B900BF502080F31188BFF34F8FBFF3AD
:102DA0006F8F00BF00BFFEE7194800680002184A95
:102DB00010601046008800F4E0601060124A01982C
:102DC00010700F482030006840F470000C4920312A
:102DD00008600846006840F070400860FFF750FD4A
:102DE00000200C490860FDF763FA0B48006840F0CA
:102DF000404009490860FDF747FA00201CBD00006B
:102E000000ED00E071C20F4100E400E06C00002022
:102E1000700000206800002034EF00E010B500BF13
:102E2000502080F31188BFF34F8FBFF36F8F00BF27
:102E300000F018FB18B14FF080500449086000BF43
:102E4000002080F3118800BF10BD000004ED00E0F9
:102E50002DE9F84305460E4690460DB1012000E0ED
:102E6000002050B900BF502080F31188BFF34F8F6E
:102E7000BFF36F8F00BF00BFFEE70EB9002701E070
:102E800005FB06F707F15000FFF7A6FA04464CB120
:102E9000A14609F1500943464A4631462846009466
:102EA000FEF778FF2046BDE8F883000070B50546C0
:102EB0000E462C4654B900BF502080F31188BFF352
:102EC0004F8FBFF36F8F00BF00BFFEE7FFF746FCD9
:102ED000D4E90F12206801FB0200A0600020A0636B
:102EE00020686060E06B401E226C216800FB0211CC
:102EF000E160FF2084F8440084F845009EB9206911
:102F000008B9012000E00020A8B904F1100000F089
:102F1000B1FB80B14FF0805009490860BFF34F8F7B
:102F2000BFF36F8F07E004F11000FFF7E1FB04F13E
:102F30002400FFF7DDFBFFF73BFC012070BD000024
:102F400004ED00E02DE9FF4383B0064688461D46A8
:102F50004FF00009344654B900BF502080F3118867
:102F6000BFF34F8FBFF36F8F00BF00BFFEE7B8F115
:102F7000000F01D1206C08B9012000E0002050B9F9
:102F800000BF502080F31188BFF34F8FBFF36F8FC6
:102F900000BF00BFFEE7022D02D1E06B012801D186
:102FA000012000E0002050B900BF502080F31188BC
:102FB000BFF34F8FBFF36F8F00BF00BFFEE700F07E
:102FC0003BFA08B9059808B9012000E0002050B983
:102FD00000BF502080F31188BFF34F8FBFF36F8F76
:102FE00000BF00BFFEE700BFFFF7B8FBA06BE16BBF
:102FF000884201D3022D28D12A4641462046FEF7B9
:103000001AFE0746606A08B9012000E0002068B98E
:1030100004F1240000F02EFB88B14FF080503249BB
:103020000860BFF34F8FBFF36F8F08E03FB14FF0E1
:1030300080502D490860BFF34F8FBFF36F8FFFF7AC
:10304000B7FB012007B0BDE8F083059818B9FFF77A
:10305000AFFB0020F6E7B9F1000F04D101A8FFF79C
:1030600043FD4FF00109FFF7A3FBFFF7D5FDFFF785
:1030700075FB94F94400401C10B9002084F844000A
:1030800094F94500401C10B9002084F84500FFF772
:103090008FFB05A901A800F059F9F0B92046FEF709
:1030A0008EFFA0B104F110000599FFF72FFD204617
:1030B000FFF753F900F02AFB002895D14FF080501C
:1030C00009490860BFF34F8FBFF36F8F8CE720462D
:1030D000FFF743F900F01AFB86E72046FFF73DF9BA
:1030E00000F014FB0020ADE704ED00E02DE9F05FF7
:1030F00007468A4690461E463C4654B900BF5020BB
:1031000080F31188BFF34F8FBFF36F8F00BF00BFF5
:10311000FEE7BAF1000F01D1206C08B9012000E0F0
:10312000002050B900BF502080F31188BFF34F8FAB
:10313000BFF36F8F00BF00BFFEE7022E02D1E06B2E
:10314000012801D1012000E0002050B900BF50202B
:1031500080F31188BFF34F8FBFF36F8F00BF00BFA5
:10316000FEE7FFF7A1FB00BF5021EFF3118081F3D1
:103170001188BFF34F8FBFF36F8F00BF0546A06B61
:10318000E16B884201D3022E23D194F945B0324637
:1031900051462046FEF74FFD0BF1010088B9606AE9
:1031A00008B9012000E0002080B904F1240000F0FB
:1031B00061FA58B1B8F1000F08D00120C8F800003A
:1031C00004E00BF1010040B284F845004FF0010922
:1031D00001E04FF0000900BF85F3118800BF4846A9
:1031E000BDE8F09F2DE9F74183B005460E464FF04C
:1031F00000082C4654B900BF502080F31188BFF35B
:103200004F8FBFF36F8F00BF00BFFEE70EB9206C7A
:1032100008B9012000E0002050B900BF502080F321
:103220001188BFF34F8FBFF36F8F00BF00BFFEE762
:1032300000F002F908B9059808B9012000E0002063
:1032400050B900BF502080F31188BFF34F8FBFF3F8
:103250006F8F00BF00BFFEE700BFFFF77FFAA76BCD
:10326000F7B131462046FEF7D1FC781EA0632069F5
:1032700008B9012000E0002060B904F1100000F05E
:10328000F9F938B14FF080502F490860BFF34F8FE4
:10329000BFF36F8FFFF78CFA012006B0BDE8F08115
:1032A000059818B9FFF784FA0020F6E7B8F1000F87
:1032B00004D101A8FFF718FC4FF00108FFF778FAD6
:1032C000FFF7AAFCFFF74AFA94F94400401C10B932
:1032D000002084F8440094F94500401C10B90020F7
:1032E00084F84500FFF764FA05A901A800F02EF85C
:1032F000F0B92046FEF756FEA0B104F1240005996E
:10330000FFF704FC2046FFF728F800F0FFF900283B
:10331000A3D14FF080500C490860BFF34F8FBFF32B
:103320006F8F9AE72046FFF718F800F0EFF994E75F
:103330002046FFF712F800F0E9F92046FEF732FECA
:1033400000288AD00020A8E704ED00E070B505460B
:103350000C4655B900BF502080F31188BFF34F8F42
:10336000BFF36F8F00BF00BFFEE754B900BF50200E
:1033700080F31188BFF34F8FBFF36F8F00BF00BF83
:10338000FEE7FFF7EBF9124802686868131A206835
:10339000401C08B9002617E00E49286809688842D1
:1033A00004D06868904201D801260DE02068984258
:1033B00007D92068C01A20602846FFF795FB002631
:1033C00002E0002020600126FFF7F2F9304670BDD0
:1033D00014000020280000202DE9FF4F85B0804612
:1033E00089461746DDE912ABB800FEF7F5FF064641
:1033F00056B15C20FEF7F0FF04460CB1266304E0F2
:103400003046FFF7F3F900E000247CB10020CDE95D
:1034100000ABCDE902403A4649464046089BFEF7DC
:10342000CEFC2046FEF740FB012501E04FF0FF35C2
:10343000284609B0BDE8F08F0549096809B901209F
:1034400005E00449096809B9022000E0002070473E
:103450001C00002038000020014908687047000067
:10346000140000202DE9F0414FF0000844480068A6
:10347000002877D143480068451C4248056015BBC9
:1034800041480068006808B9012000E0002050B9F8
:1034900000BF502080F31188BFF34F8FBFF36F8FB1
:1034A00000BF00BFFEE73848076838480068364963
:1034B00008603648076036480068401C3449086098
:1034C000FEF79CFE00BF3348006885423CD300BF36
:1034D0002D480068006808B9012000E0002020B1F4
:1034E0004FF0FF302B4908602DE027480068C06886
:1034F000C4686668B54202D22648066023E0201DF3
:10350000FFF7E2F8A06A18B104F11800FFF7DCF841
:1035100094F82C10012088401F49096808431E496F
:103520000860E16A01EB81011C4A02EB8100211D68
:10353000FFF708F91A49E06A0968C96A8842C7D3DF
:103540004FF00108C4E700BF15480068C06A00EBEF
:103550008000124951F82000012801D94FF00108DC
:1035600005E0FFE70F480068401C0E4908600E4860
:10357000006808B14FF001084046BDE8F081000046
:103580003800002014000020040000200800002063
:10359000280000203000002018000020B40A00207D
:1035A00000000020200000202400002070B5054607
:1035B0002C460026002D55D02B480068844201D1AE
:1035C000012000E0002050B900BF502080F3118896
:1035D000BFF34F8FBFF36F8F00BF00BFFEE7206DBB
:1035E00050B900BF502080F31188BFF34F8FBFF355
:1035F0006F8F00BF00BFFEE7206D401E2065E16CAD
:10360000E06A88422ED0206D60BB201DFFF75CF879
:1036100078B9E06A00EB8000144951F8200040B905
:1036200094F82C1001208840114909688143104802
:103630000160E06CE062E06AC0F12000A06194F8F3
:103640002C10012088400A4909680843084908608D
:10365000E16A01EB8101054A02EB8100211DFFF7C0
:1036600071F80126304670BD00000020B40A002029
:103670001800002070B50646F068C46854B900BF51
:10368000502080F31188BFF34F8FBFF36F8F00BFBF
:1036900000BFFEE704F11800FFF716F815480068B0
:1036A000A8B9201DFFF710F894F82C1001208840CD
:1036B00011490968084310490860E16A01EB81017A
:1036C0000E4A02EB8100211DFFF73CF804E004F1F3
:1036D00018010B48FFF736F80A49E06A0968C96A19
:1036E000884204D9012501200749086000E000252F
:1036F000284670BD3800002018000020B40A0020C1
:103700005C0D0020000000202400002070B5002483
:1037100000263648006850B900BF502080F3118859
:10372000BFF34F8FBFF36F8F00BF00BFFEE7FFF700
:1037300015F82E480068401E2C49086008460068AD
:1037400000284FD12A48006800284BD024E029489F
:10375000C068C46804F11800FEF7B6FF201DFEF72C
:10376000B3FF94F82C1001208840234909680843CE
:1037700021490860E16A01EB8101204A02EB8100E6
:10378000211DFEF7DFFF1E49E06A0968C96A884209
:1037900002D301201B4908601648006808B90120BF
:1037A00000E000200028D2D00CB1FEF727FD16481B
:1037B000056865B100BFFFF755FE10B10120114942
:1037C00008606D1E002DF6D100200F4908600D48DD
:1037D000006838B1012630070C490860BFF34F8FED
:1037E000BFF36F8FFEF7E4FF304670BD3800002056
:1037F000100000205C0D002018000020B40A0020FA
:1038000000000020240000202000002004ED00E043
:103810001CB50024FEF7A4F90E48006858B10E4804
:10382000022100234FF48272CDE900100BA10D4854
:10383000FFF7D2FD044654B900BF502080F3118831
:10384000BFF34F8FBFF36F8F00BF00BFFEE720466F
:103850001CBD00004400002048000020546D722070
:1038600053766300412300082DE9FE4304460D46CC
:1038700016461F46DDF828804FF0000954B900BFF6
:10388000502080F31188BFF34F8FBFF36F8F00BFBD
:1038900000BFFEE71448006810B30095019602943B
:1038A000062D15DAFFF7C8FD022808D1002342468D
:1038B00069460D480068FFF745FB814610E000238C
:1038C0001A46694608480068FFF73CFB814607E056
:1038D00000233A46694604480068FFF707FC814622
:1038E0004846BDE8FE8300004400002021F000426D
:1038F000A2F16052B2F5801F01F0004328BFD2F15F
:103900007F6C0BD95FEA001C43EAC20242EB5070A5
:1039100018BF704728BF20F001007047B2F5801F24
:10392000BCBF184670474FEA410C1CF5001F02D27D
:10393000084600F081B970B500F0B4F800000089C5
:10394000FFF7F6BF4FF00040A0F580007047000081
:10395000DFF848C170B51CEA111E1EBF1CEA131522
:103960009EEA0C0F95EA0C0F00F06F8081EA0304C9
:1039700023EA4C134EEAD47E21EA4C1141F4801123
:1039800043F48013AE44A1FB024CA0FB0365AEF1EF
:103990007F7E361955EB0C05A1FB034C4CF100035F
:1039A000A0FB021C16EB0C06654153F10003094213
:1039B00018BF46F0010613F4007F0BD14FEA033124
:1039C0004FEA0530340341EA155140EA16506FF0D2
:1039D00003020AE04FEAC3214FEAC520F40241EA9C
:1039E000555140EA56506FF0020202EB2E4201EBB5
:1039F000025585EACE710AD05FEA440C18BF24F064
:103A0000004450F1000041F1000120EAD47040F27E
:103A1000FE7C624500D270BDA84214BF4FF08044C6
:103A20004FF04044002E08BF0024BEF1806FA8BFB5
:103A3000A1F1C041BDE8704080F282804FF00000EB
:103A400001F1C04101F0004170479EEA0C0F0CEA01
:103A5000131518BF95EA0C0F06D04FF0000081EA4D
:103A6000030E0EF0004170BD00F01CF88900013E0D
:103A700000F007B800F009B84FEA430C5FEA5C5C5D
:103A800008D081EA030100F05BB84FEA410C5FEA1D
:103A90005C5CF6D14FF00000014970470000FF0761
:103AA0000000F87F0EF1020E2EF0030E5EF8046B9C
:103AB000364205D4012A43EB030515F5001F12D841
:103AC000012841EB010C1CF5001F0CD80ED14FEA68
:103AD000D17C15F5001F0CEB4C0C0CF1020C08BF4F
:103AE0004CEBD37C04E04FF0080C01E04FEAD37CB0
:103AF0000CEB4C0526FA05F606F00706B6F1040CA9
:103B000006D20EEB860CBDE870404CF0010C60470D
:103B1000DFE80CF0090B02024FF000414FF000000B
:103B2000A1F5002170BD19461046012851EB010492
:103B300018BFD4F5001484BF002001F0004170BD0F
:103B40000808A0F500114FEA3101704743004FEA21
:103B5000D30C4FEA3C0C43401FBF40070CF16051AF
:103B600013F0FE4F70471CF0006F03D100200CF0E3
:103B7000004170470CF0004343EA507010B540EA32
:103B8000CC0000F00EF800BF000000924FEA0001E8
:103B9000FFF7D6BF4FF000414FF00000A1F5002124
:103BA00070470EF1020E2EF0030E5EF8044B244215
:103BB00004D44FEA4102B2F17F4F11D84FEA4003DB
:103BC000B3F17F4F0CD80ED14FEAD07CB2F17F4FCA
:103BD0000CEB4C0C0CF1020C08BF4CEBD17C04E05C
:103BE0004FF0080C01E04FEAD17C0CEB4C0324FAB7
:103BF00003F404F00704B4F1040C06D20EEB840CB9
:103C0000BDE810404CF0010C6047DFE80CF00708FD
:103C100002024FF00040A0F5800010BD08464200AF
:103C200018BFD2F1807288BF00F0004010BD4FF085
:103C30004070E1EE100A7047FF2141EAD050C00504
:103C400070470000000000000000002F000000008E
:103C50000700070000147F147F1400242A7F2A1213
:103C60000062640813230036495522500000050302
:103C7000000000001C224100000041221C00001432
:103C8000083E08140008083E0808000000A0600074
:103C90000008080808080000606000000020100804
:103CA0000402003E5149453E0000427F4000004270
:103CB00061514946002141454B31001814127F10D3
:103CC000002745454539003C4A4949300001710902
:103CD000050300364949493600064949291E0000B6
:103CE000363600000000563600000008142241005D
:103CF000001414141414000041221408000201518D
:103D0000090600324959513E007C1211127C007F95
:103D100049494936003E41414122007F4141221C30
:103D2000007F49494941007F09090901003E414995
:103D3000497A007F0808087F0000417F4100002089
:103D400040413F01007F08142241007F4040404035
:103D5000007F020C027F007F0408107F003E41417B
:103D6000413E007F09090906003E4151215E007F66
:103D7000091929460046494949310001017F0101DD
:103D8000003F4040403F001F2040201F003F403880
:103D9000403F0063140814630007087008070061BF
:103DA0005149454300007F41410000552A552A559D
:103DB000000041417F000004020102040040404035
:103DC0004040000001020400002054545478007F59
:103DD0004844443800384444442000384444487F30
:103DE00000385454541800087E0901020018A4A495
:103DF000A47C007F080404780000447D400000405B
:103E000080847D00007F102844000000417F400036
:103E1000007C04180478007C0804047800384444CA
:103E2000443800FC242424180018242418FC007CA6
:103E30000804040800485454542000043F4440201F
:103E4000003C4040207C001C2040201C003C4030B6
:103E5000403C004428102844001CA0A0A07C004442
:103E600064544C4414141414141400000000000092
:103E700000000000000000000000000000F800004A
:103E80000000000000333000000000100C06100C91
:103E90000600000000000000000040C07840C0782C
:103EA0004000043F04043F040400007088FC083014
:103EB0000000001820FF211E0000F008F000E018AC
:103EC000000000211C031E211E0000F00888700065
:103ED00000001E2123241927211010160E000000B7
:103EE00000000000000000000000000000E01804D6
:103EF0000200000000071820400000020418E00043
:103F000000000040201807000000404080F0804082
:103F100040000202010F01020200000000F0000058
:103F200000000101011F010101000000000000006C
:103F3000000080B0700000000000000000000000E1
:103F4000000000010101010101010000000000006A
:103F50000000003030000000000000000000806021
:103F60001804006018060100000000E010080810A6
:103F7000E000000F102020100F00001010F80000CB
:103F800000000020203F2020000000700808088862
:103F90007000003028242221300000300888884832
:103FA00030000018202020110E000000C02010F862
:103FB000000000070424243F240000F80888880833
:103FC00008000019212020110E0000E01088881838
:103FD0000000000F112020110E0000380808C8381A
:103FE00008000000003F00000000007088080888FA
:103FF0007000001C222121221C0000E01008081083
:10400000E0000000312222110F00000000C0C000BB
:1040100000000000003030000000000000800000C0
:1040200000000000806000000000000080402010C0
:1040300008000001020408102000404040404040B9
:10404000400004040404040404000008102040801C
:104050000000002010080402010000704808080851
:10406000F0000000003036010000C030C828E81021
:10407000E0000718272423140B000000C038E000DC
:104080000000203C23020227382008F88888887026
:104090000000203F202020110E00C0300808080832
:1040A0003800071820202010080008F80808081019
:1040B000E000203F202020100F0008F88888E80842
:1040C0001000203F20202320180008F88888E808E6
:1040D0001000203F200003000000C030080808380E
:1040E000000007182020221E020008F8080000081F
:1040F000F808203F210101213F20000808F80808A6
:1041000000000020203F2020000000000808F808E0
:104110000800C08080807F00000008F888C0281850
:104120000800203F20012638200008F80800000081
:104130000000203F20202020300008F8F800F8F888
:104140000800203F003F003F200008F830C0000872
:10415000F808203F200007183F00E010080808106A
:10416000E0000F10202020100F0008F808080808B1
:10417000F000203F210101010000E01008080810B4
:10418000E0000F18242438504F0008F888888888E9
:104190007000203F2000030C3020007088080808C1
:1041A00038000038202121221C00180808F80808CF
:1041B00018000000203F2000000008F80800000858
:1041C000F808001F202020201F000878880000C861
:1041D0003808000007380E010000F80800F8000851
:1041E000F800033C0700073C03000818688080685B
:1041F000180820302C03032C30200838C800C83899
:1042000008000000203F2000000010080808C838FF
:1042100008002038262120201800000000FE02029D
:1042200002000000007F40404000000C30C0000051
:104230000000000000010638C00000020202FE007B
:104240000000004040407F00000000000402020225
:10425000040000000000000000000000000000005A
:104260000000808080808080808000020204000046
:10427000000000000000000000000000808080803E
:1042800000000019242222223F2008F8008080002C
:104290000000003F112020110E00000000808080EF
:1042A0000000000E112020201100000000808088F6
:1042B000F800000E112020103F2000008080808038
:1042C0000000001F222222221300008080F0888834
:1042D00088180020203F202000000000808080807F
:1042E0008000006B94949493600008F800808080B4
:1042F0000000203F210000203F200080989800000F
:1043000000000020203F202000000000008098983E
:10431000000000C08080807F000008F800008080DE
:104320008000203F24022D302000000808F8000003
:1043300000000020203F20200000808080808080BE
:104340008000203F20003F20003F80800080808050
:104350000000203F210000203F200000808080805E
:104360000000001F202020201F008080008080008F
:10437000000080FFA12020110E000000008080803E
:104380008000000E112020A0FF80808080008080AF
:10439000800020203F2120000100000080808080DC
:1043A00080000033242424241900008080E08080D1
:1043B00000000000001F202000008080000000801E
:1043C0008000001F202020103F208080800000807F
:1043D000808000010E30080601008080008000808F
:1043E00080800F300C030C300F0000808000808034
:1043F00080000020312E0E3120008080800000805F
:10440000808080818E70180601000080808080800E
:1044100080000021302C2221300000000000807C30
:10442000020200000000003F404000000000FF00CA
:10443000000000000000FF0000000002027C80007D
:1044400000000040403F00000000000601010202A1
:104450000404000000000000000000007C4400088C
:1044600000000020740A0000C401000898480008F9
:10447000740A0020843601002002000801681AAA8C
:1044800001C12D0102030404D506070809AC7A0313
:104490000A24F920100A03050911FF118905C31226
:1044A000E012F072F8073D4428FF11AA44700B8314
:1044B00001384482929274018328087C44FF017D74
:1044C0007D7D0449055C7D01FF99990279AD890BD9
:1044D000013669419949FA0101011D38083F3F033E
:1044E00003F31311011E01F1116181312D8161115D
:1044F000F1393B4141072C01C1211EAB21C11439C7
:104500000139360738D33303033F3F23E0E06A7FA6
:10451000A81A7FBF4C0618060A213640407F40404B
:104520001C1F204001AB201F14113A600E6C300C90
:10453000034601361C070706017809040404844475
:10454000444484071C0484C405790E09110A7911B6
:104550002940034107072610181412112E0F1010BE
:10456000100F0F331F1026081012120D22186B0D9A
:10457000120A5929590701605A8001013D20087F1C
:10458000030C300C037F2538545458257C040478E0
:1045900005223C40407C17FFAAAAAA28080A2CFF43
:1045A000681E2649494932101D020408100F49CAE5
:1045B000380CC0E060303818DCECEC8C0E01F80BE5
:1045C000CCEC0C1C18383070E0C0DE343CF8604C89
:1045D000C0F0601BBB808022F3C0E0DAE0111A401B
:1045E00037180A8080E0F09DCFC060601CA826804C
:1045F000F0FC1E0F0F7FDCF8F0B8ACF712DB8B99E4
:10460000998D8D99998BDB1276ACB8F0F89C1D0FC3
:10461000071EFCF063401303C1E06070381F1F0CDD
:1046200007DFF7E6C603FFFF03A00F202030B0B07E
:10463000D858EFAF35161BF8F8B7FCFFCF607C38C1
:10464000100F1C78771EBD9ECEDB5DF6F86E030161
:1046500035B3FFFF92180C7CE7FBFCFCFFBFFFFFAC
:10466000FFDF041BFF1F04100ABFFFFDFCFBFFFE62
:1046700010107692FFFFB7085014FEF0F83F0310B9
:10468000380E7B7F1CE7FF078F883FFFFF300A78DB
:104690000E030103623FFF19591311500F82C233F9
:1046A0001F0703040C183070606060400F8080C0EA
:1046B000E263713138FC9A2B39181818130F5F7D9B
:1046C000FEF68EFE5BFFFBF767C787E7FF7E7F0185
:1046D00070137EFFE787C7E7F7DBFF7B1684F4EAFA
:1046E0007C5F0F013C060F0FEF211C08181F0AF515
:1046F000010307071B0103D701171B01011BB708A3
:104700001818181F1F18110303031F3E3F7D5DCBB0
:10471000FFF9F8F5FFF7BFFD580DF7FFFFFEC95F82
:104720007D3E3E1F0B03718116FEFE18FEFE15FE38
:10473000C0C07E100BFEEE38FEFEC0F82E3EF035F7
:10474000FE1C70FE180A7EC0C0FE3EFEFE38E0224F
:104750001118150E7CE03E06FEFED2DED2FEFE12E1
:1047600076FE806EDAD2F63F1B02020306A306DC59
:10477000F80E02100C2E6164635F7465787420205B
:10478000280A2E696D755F7461736B0C2F706F77DB
:10479000657220011198082E68656C6C6F340C9A54
:1047A000350C9A360C4A370C295417627574746F9D
:1047B0006E280A2E646275735F6B657918295C9D9B
:1047C000315F70330C1956790C1956790C195679DA
:1047D0000C19561118092E6D7075363630300B19BC
:1047E000181C656D70B52B73740C19249A3254190A
:1047F0000C7954190C7954190C7954190C39542E1C
:10480000696E613232C059486D335F703224190CC1
:104810007954190C7954190C7954190C7954190CD0
:104820003954290C9D345F70310C7954190C79542A
:10483000190C7954190C7954190C7954190C7954B0
:104840009A3554190C7954190C7954190C79541956
:104850000C7954190C7954190C79549A3654190C52
:104860007954190C7954190C7954190C7954190C80
:104870007954190C79549A3754190C7954190C79C4
:1048800054190C7954190C7954190C7954190C29B0
:084890005411130104000000A3
:040000050800018965
:00000001FF
